{
	"data": {
		"bytecode": {
			"linkReferences": {},
			"object": "608060405260055f553480156012575f5ffd5b5061045c806100205f395ff3fe608060405260043610610049575f3560e01c8063098de8201461004d5780630d8e6e2c1461007757806398d5fdca146100a1578063b60d4288146100b7578063f36089ec146100c1575b5f5ffd5b348015610058575f5ffd5b506100616100d7565b60405161006e9190610253565b60405180910390f35b348015610082575f5ffd5b5061008b6100dc565b6040516100989190610253565b60405180910390f35b3480156100ac575f5ffd5b506100b5610163565b005b6100bf6101f3565b005b3480156100cc575f5ffd5b506100d5610239565b005b5f5481565b5f73694aa1769357215de4fac081bf1f309adc32530673ffffffffffffffffffffffffffffffffffffffff166354fd4d506040518163ffffffff1660e01b8152600401602060405180830381865afa15801561013a573d5f5f3e3d5ffd5b505050506040513d601f19601f8201168201806040525081019061015e919061029a565b905090565b5f73694aa1769357215de4fac081bf1f309adc32530690505f8173ffffffffffffffffffffffffffffffffffffffff1663feaf968c6040518163ffffffff1660e01b815260040160a060405180830381865afa1580156101c5573d5f5f3e3d5ffd5b505050506040513d601f19601f820116820180604052508101906101e99190610337565b5050509150505050565b5f54341015610237576040517f08c379a000000000000000000000000000000000000000000000000000000000815260040161022e90610408565b60405180910390fd5b565b565b5f819050919050565b61024d8161023b565b82525050565b5f6020820190506102665f830184610244565b92915050565b5f5ffd5b6102798161023b565b8114610283575f5ffd5b50565b5f8151905061029481610270565b92915050565b5f602082840312156102af576102ae61026c565b5b5f6102bc84828501610286565b91505092915050565b5f69ffffffffffffffffffff82169050919050565b6102e3816102c5565b81146102ed575f5ffd5b50565b5f815190506102fe816102da565b92915050565b5f819050919050565b61031681610304565b8114610320575f5ffd5b50565b5f815190506103318161030d565b92915050565b5f5f5f5f5f60a086880312156103505761034f61026c565b5b5f61035d888289016102f0565b955050602061036e88828901610323565b945050604061037f88828901610286565b935050606061039088828901610286565b92505060806103a1888289016102f0565b9150509295509295909350565b5f82825260208201905092915050565b7f6469646e742073656e6420656e6f7567682045544800000000000000000000005f82015250565b5f6103f26015836103ae565b91506103fd826103be565b602082019050919050565b5f6020820190508181035f83015261041f816103e6565b905091905056fea264697066735822122034171629add2f96b18cb67e1c04417b2be7cf4f1731831f4ff9cdd987f7fde5d64736f6c634300081e0033",
			"opcodes": "PUSH1 0x80 PUSH1 0x40 MSTORE PUSH1 0x5 PUSH0 SSTORE CALLVALUE DUP1 ISZERO PUSH1 0x12 JUMPI PUSH0 PUSH0 REVERT JUMPDEST POP PUSH2 0x45C DUP1 PUSH2 0x20 PUSH0 CODECOPY PUSH0 RETURN INVALID PUSH1 0x80 PUSH1 0x40 MSTORE PUSH1 0x4 CALLDATASIZE LT PUSH2 0x49 JUMPI PUSH0 CALLDATALOAD PUSH1 0xE0 SHR DUP1 PUSH4 0x98DE820 EQ PUSH2 0x4D JUMPI DUP1 PUSH4 0xD8E6E2C EQ PUSH2 0x77 JUMPI DUP1 PUSH4 0x98D5FDCA EQ PUSH2 0xA1 JUMPI DUP1 PUSH4 0xB60D4288 EQ PUSH2 0xB7 JUMPI DUP1 PUSH4 0xF36089EC EQ PUSH2 0xC1 JUMPI JUMPDEST PUSH0 PUSH0 REVERT JUMPDEST CALLVALUE DUP1 ISZERO PUSH2 0x58 JUMPI PUSH0 PUSH0 REVERT JUMPDEST POP PUSH2 0x61 PUSH2 0xD7 JUMP JUMPDEST PUSH1 0x40 MLOAD PUSH2 0x6E SWAP2 SWAP1 PUSH2 0x253 JUMP JUMPDEST PUSH1 0x40 MLOAD DUP1 SWAP2 SUB SWAP1 RETURN JUMPDEST CALLVALUE DUP1 ISZERO PUSH2 0x82 JUMPI PUSH0 PUSH0 REVERT JUMPDEST POP PUSH2 0x8B PUSH2 0xDC JUMP JUMPDEST PUSH1 0x40 MLOAD PUSH2 0x98 SWAP2 SWAP1 PUSH2 0x253 JUMP JUMPDEST PUSH1 0x40 MLOAD DUP1 SWAP2 SUB SWAP1 RETURN JUMPDEST CALLVALUE DUP1 ISZERO PUSH2 0xAC JUMPI PUSH0 PUSH0 REVERT JUMPDEST POP PUSH2 0xB5 PUSH2 0x163 JUMP JUMPDEST STOP JUMPDEST PUSH2 0xBF PUSH2 0x1F3 JUMP JUMPDEST STOP JUMPDEST CALLVALUE DUP1 ISZERO PUSH2 0xCC JUMPI PUSH0 PUSH0 REVERT JUMPDEST POP PUSH2 0xD5 PUSH2 0x239 JUMP JUMPDEST STOP JUMPDEST PUSH0 SLOAD DUP2 JUMP JUMPDEST PUSH0 PUSH20 0x694AA1769357215DE4FAC081BF1F309ADC325306 PUSH20 0xFFFFFFFFFFFFFFFFFFFFFFFFFFFFFFFFFFFFFFFF AND PUSH4 0x54FD4D50 PUSH1 0x40 MLOAD DUP2 PUSH4 0xFFFFFFFF AND PUSH1 0xE0 SHL DUP2 MSTORE PUSH1 0x4 ADD PUSH1 0x20 PUSH1 0x40 MLOAD DUP1 DUP4 SUB DUP2 DUP7 GAS STATICCALL ISZERO DUP1 ISZERO PUSH2 0x13A JUMPI RETURNDATASIZE PUSH0 PUSH0 RETURNDATACOPY RETURNDATASIZE PUSH0 REVERT JUMPDEST POP POP POP POP PUSH1 0x40 MLOAD RETURNDATASIZE PUSH1 0x1F NOT PUSH1 0x1F DUP3 ADD AND DUP3 ADD DUP1 PUSH1 0x40 MSTORE POP DUP2 ADD SWAP1 PUSH2 0x15E SWAP2 SWAP1 PUSH2 0x29A JUMP JUMPDEST SWAP1 POP SWAP1 JUMP JUMPDEST PUSH0 PUSH20 0x694AA1769357215DE4FAC081BF1F309ADC325306 SWAP1 POP PUSH0 DUP2 PUSH20 0xFFFFFFFFFFFFFFFFFFFFFFFFFFFFFFFFFFFFFFFF AND PUSH4 0xFEAF968C PUSH1 0x40 MLOAD DUP2 PUSH4 0xFFFFFFFF AND PUSH1 0xE0 SHL DUP2 MSTORE PUSH1 0x4 ADD PUSH1 0xA0 PUSH1 0x40 MLOAD DUP1 DUP4 SUB DUP2 DUP7 GAS STATICCALL ISZERO DUP1 ISZERO PUSH2 0x1C5 JUMPI RETURNDATASIZE PUSH0 PUSH0 RETURNDATACOPY RETURNDATASIZE PUSH0 REVERT JUMPDEST POP POP POP POP PUSH1 0x40 MLOAD RETURNDATASIZE PUSH1 0x1F NOT PUSH1 0x1F DUP3 ADD AND DUP3 ADD DUP1 PUSH1 0x40 MSTORE POP DUP2 ADD SWAP1 PUSH2 0x1E9 SWAP2 SWAP1 PUSH2 0x337 JUMP JUMPDEST POP POP POP SWAP2 POP POP POP POP JUMP JUMPDEST PUSH0 SLOAD CALLVALUE LT ISZERO PUSH2 0x237 JUMPI PUSH1 0x40 MLOAD PUSH32 0x8C379A000000000000000000000000000000000000000000000000000000000 DUP2 MSTORE PUSH1 0x4 ADD PUSH2 0x22E SWAP1 PUSH2 0x408 JUMP JUMPDEST PUSH1 0x40 MLOAD DUP1 SWAP2 SUB SWAP1 REVERT JUMPDEST JUMP JUMPDEST JUMP JUMPDEST PUSH0 DUP2 SWAP1 POP SWAP2 SWAP1 POP JUMP JUMPDEST PUSH2 0x24D DUP2 PUSH2 0x23B JUMP JUMPDEST DUP3 MSTORE POP POP JUMP JUMPDEST PUSH0 PUSH1 0x20 DUP3 ADD SWAP1 POP PUSH2 0x266 PUSH0 DUP4 ADD DUP5 PUSH2 0x244 JUMP JUMPDEST SWAP3 SWAP2 POP POP JUMP JUMPDEST PUSH0 PUSH0 REVERT JUMPDEST PUSH2 0x279 DUP2 PUSH2 0x23B JUMP JUMPDEST DUP2 EQ PUSH2 0x283 JUMPI PUSH0 PUSH0 REVERT JUMPDEST POP JUMP JUMPDEST PUSH0 DUP2 MLOAD SWAP1 POP PUSH2 0x294 DUP2 PUSH2 0x270 JUMP JUMPDEST SWAP3 SWAP2 POP POP JUMP JUMPDEST PUSH0 PUSH1 0x20 DUP3 DUP5 SUB SLT ISZERO PUSH2 0x2AF JUMPI PUSH2 0x2AE PUSH2 0x26C JUMP JUMPDEST JUMPDEST PUSH0 PUSH2 0x2BC DUP5 DUP3 DUP6 ADD PUSH2 0x286 JUMP JUMPDEST SWAP2 POP POP SWAP3 SWAP2 POP POP JUMP JUMPDEST PUSH0 PUSH10 0xFFFFFFFFFFFFFFFFFFFF DUP3 AND SWAP1 POP SWAP2 SWAP1 POP JUMP JUMPDEST PUSH2 0x2E3 DUP2 PUSH2 0x2C5 JUMP JUMPDEST DUP2 EQ PUSH2 0x2ED JUMPI PUSH0 PUSH0 REVERT JUMPDEST POP JUMP JUMPDEST PUSH0 DUP2 MLOAD SWAP1 POP PUSH2 0x2FE DUP2 PUSH2 0x2DA JUMP JUMPDEST SWAP3 SWAP2 POP POP JUMP JUMPDEST PUSH0 DUP2 SWAP1 POP SWAP2 SWAP1 POP JUMP JUMPDEST PUSH2 0x316 DUP2 PUSH2 0x304 JUMP JUMPDEST DUP2 EQ PUSH2 0x320 JUMPI PUSH0 PUSH0 REVERT JUMPDEST POP JUMP JUMPDEST PUSH0 DUP2 MLOAD SWAP1 POP PUSH2 0x331 DUP2 PUSH2 0x30D JUMP JUMPDEST SWAP3 SWAP2 POP POP JUMP JUMPDEST PUSH0 PUSH0 PUSH0 PUSH0 PUSH0 PUSH1 0xA0 DUP7 DUP9 SUB SLT ISZERO PUSH2 0x350 JUMPI PUSH2 0x34F PUSH2 0x26C JUMP JUMPDEST JUMPDEST PUSH0 PUSH2 0x35D DUP9 DUP3 DUP10 ADD PUSH2 0x2F0 JUMP JUMPDEST SWAP6 POP POP PUSH1 0x20 PUSH2 0x36E DUP9 DUP3 DUP10 ADD PUSH2 0x323 JUMP JUMPDEST SWAP5 POP POP PUSH1 0x40 PUSH2 0x37F DUP9 DUP3 DUP10 ADD PUSH2 0x286 JUMP JUMPDEST SWAP4 POP POP PUSH1 0x60 PUSH2 0x390 DUP9 DUP3 DUP10 ADD PUSH2 0x286 JUMP JUMPDEST SWAP3 POP POP PUSH1 0x80 PUSH2 0x3A1 DUP9 DUP3 DUP10 ADD PUSH2 0x2F0 JUMP JUMPDEST SWAP2 POP POP SWAP3 SWAP6 POP SWAP3 SWAP6 SWAP1 SWAP4 POP JUMP JUMPDEST PUSH0 DUP3 DUP3 MSTORE PUSH1 0x20 DUP3 ADD SWAP1 POP SWAP3 SWAP2 POP POP JUMP JUMPDEST PUSH32 0x6469646E742073656E6420656E6F756768204554480000000000000000000000 PUSH0 DUP3 ADD MSTORE POP JUMP JUMPDEST PUSH0 PUSH2 0x3F2 PUSH1 0x15 DUP4 PUSH2 0x3AE JUMP JUMPDEST SWAP2 POP PUSH2 0x3FD DUP3 PUSH2 0x3BE JUMP JUMPDEST PUSH1 0x20 DUP3 ADD SWAP1 POP SWAP2 SWAP1 POP JUMP JUMPDEST PUSH0 PUSH1 0x20 DUP3 ADD SWAP1 POP DUP2 DUP2 SUB PUSH0 DUP4 ADD MSTORE PUSH2 0x41F DUP2 PUSH2 0x3E6 JUMP JUMPDEST SWAP1 POP SWAP2 SWAP1 POP JUMP INVALID LOG2 PUSH5 0x6970667358 0x22 SLT KECCAK256 CALLVALUE OR AND 0x29 0xAD 0xD2 EXTDELEGATECALL PUSH12 0x18CB67E1C04417B2BE7CF4F1 PUSH20 0x1831F4FF9CDD987F7FDE5D64736F6C634300081E STOP CALLER "
		},
		"gasEstimates": {
			"creation": {
				"codeDepositCost": "223200",
				"executionCost": "22366",
				"totalCost": "245566"
			},
			"external": {
				"fund()": "2571",
				"getConversionRate()": "209",
				"getPrice()": "infinite",
				"getVersion()": "infinite",
				"minimumUsd()": "2402"
			}
		},
		"methodIdentifiers": {
			"fund()": "b60d4288",
			"getConversionRate()": "f36089ec",
			"getPrice()": "98d5fdca",
			"getVersion()": "0d8e6e2c",
			"minimumUsd()": "098de820"
		}
	},
	"abi": [
		{
			"inputs": [],
			"name": "fund",
			"outputs": [],
			"stateMutability": "payable",
			"type": "function"
		},
		{
			"inputs": [],
			"name": "getConversionRate",
			"outputs": [],
			"stateMutability": "nonpayable",
			"type": "function"
		},
		{
			"inputs": [],
			"name": "getPrice",
			"outputs": [],
			"stateMutability": "nonpayable",
			"type": "function"
		},
		{
			"inputs": [],
			"name": "getVersion",
			"outputs": [
				{
					"internalType": "uint256",
					"name": "",
					"type": "uint256"
				}
			],
			"stateMutability": "view",
			"type": "function"
		},
		{
			"inputs": [],
			"name": "minimumUsd",
			"outputs": [
				{
					"internalType": "uint256",
					"name": "",
					"type": "uint256"
				}
			],
			"stateMutability": "view",
			"type": "function"
		}
	]
}